{
    "abi": [
        {
            "type": "constructor",
            "inputs": [
                {
                    "name": "_stablecoin",
                    "type": "address",
                    "internalType": "address"
                }
            ],
            "stateMutability": "nonpayable"
        },
        {
            "type": "function",
            "name": "MAX_LIQUIDATION_BONUS",
            "inputs": [],
            "outputs": [
                {
                    "name": "",
                    "type": "uint256",
                    "internalType": "uint256"
                }
            ],
            "stateMutability": "view"
        },
        {
            "type": "function",
            "name": "PRICE_IMPACT_PERCENTAGE",
            "inputs": [],
            "outputs": [
                {
                    "name": "",
                    "type": "uint256",
                    "internalType": "uint256"
                }
            ],
            "stateMutability": "view"
        },
        {
            "type": "function",
            "name": "RATIO_DIVISOR",
            "inputs": [],
            "outputs": [
                {
                    "name": "",
                    "type": "uint256",
                    "internalType": "uint256"
                }
            ],
            "stateMutability": "view"
        },
        {
            "type": "function",
            "name": "acceptedCollateralTokens",
            "inputs": [
                {
                    "name": "",
                    "type": "address",
                    "internalType": "address"
                }
            ],
            "outputs": [
                {
                    "name": "",
                    "type": "bool",
                    "internalType": "bool"
                }
            ],
            "stateMutability": "view"
        },
        {
            "type": "function",
            "name": "acceptedTokensList",
            "inputs": [
                {
                    "name": "",
                    "type": "uint256",
                    "internalType": "uint256"
                }
            ],
            "outputs": [
                {
                    "name": "",
                    "type": "address",
                    "internalType": "address"
                }
            ],
            "stateMutability": "view"
        },
        {
            "type": "function",
            "name": "addCollateralToken",
            "inputs": [
                {
                    "name": "token",
                    "type": "address",
                    "internalType": "address"
                }
            ],
            "outputs": [],
            "stateMutability": "nonpayable"
        },
        {
            "type": "function",
            "name": "aggregateValues",
            "inputs": [
                {
                    "name": "values",
                    "type": "uint256[]",
                    "internalType": "uint256[]"
                }
            ],
            "outputs": [
                {
                    "name": "",
                    "type": "uint256",
                    "internalType": "uint256"
                }
            ],
            "stateMutability": "view"
        },
        {
            "type": "function",
            "name": "borrowStablecoin",
            "inputs": [
                {
                    "name": "amount",
                    "type": "uint256",
                    "internalType": "uint256"
                }
            ],
            "outputs": [],
            "stateMutability": "nonpayable"
        },
        {
            "type": "function",
            "name": "calculateHealthFactor",
            "inputs": [
                {
                    "name": "user",
                    "type": "address",
                    "internalType": "address"
                }
            ],
            "outputs": [
                {
                    "name": "",
                    "type": "uint256",
                    "internalType": "uint256"
                }
            ],
            "stateMutability": "view"
        },
        {
            "type": "function",
            "name": "calculateMaxBorrowable",
            "inputs": [
                {
                    "name": "user",
                    "type": "address",
                    "internalType": "address"
                }
            ],
            "outputs": [
                {
                    "name": "",
                    "type": "uint256",
                    "internalType": "uint256"
                }
            ],
            "stateMutability": "view"
        },
        {
            "type": "function",
            "name": "calculateTotalCollateralValue",
            "inputs": [
                {
                    "name": "user",
                    "type": "address",
                    "internalType": "address"
                }
            ],
            "outputs": [
                {
                    "name": "",
                    "type": "uint256",
                    "internalType": "uint256"
                }
            ],
            "stateMutability": "view"
        },
        {
            "type": "function",
            "name": "collateralRatio",
            "inputs": [],
            "outputs": [
                {
                    "name": "",
                    "type": "uint256",
                    "internalType": "uint256"
                }
            ],
            "stateMutability": "view"
        },
        {
            "type": "function",
            "name": "configureOracle",
            "inputs": [
                {
                    "name": "token",
                    "type": "address",
                    "internalType": "address"
                },
                {
                    "name": "chainlinkAggregator",
                    "type": "address",
                    "internalType": "address"
                },
                {
                    "name": "maxPriceAge",
                    "type": "uint256",
                    "internalType": "uint256"
                },
                {
                    "name": "useRedstoneFallback",
                    "type": "bool",
                    "internalType": "bool"
                }
            ],
            "outputs": [],
            "stateMutability": "nonpayable"
        },
        {
            "type": "function",
            "name": "createVault",
            "inputs": [],
            "outputs": [],
            "stateMutability": "nonpayable"
        },
        {
            "type": "function",
            "name": "deleteVault",
            "inputs": [],
            "outputs": [],
            "stateMutability": "nonpayable"
        },
        {
            "type": "function",
            "name": "depositCollateral",
            "inputs": [
                {
                    "name": "token",
                    "type": "address",
                    "internalType": "address"
                },
                {
                    "name": "amount",
                    "type": "uint256",
                    "internalType": "uint256"
                }
            ],
            "outputs": [],
            "stateMutability": "nonpayable"
        },
        {
            "type": "function",
            "name": "extractTimestampsAndAssertAllAreEqual",
            "inputs": [],
            "outputs": [
                {
                    "name": "extractedTimestamp",
                    "type": "uint256",
                    "internalType": "uint256"
                }
            ],
            "stateMutability": "pure"
        },
        {
            "type": "function",
            "name": "getAcceptedTokenAtIndex",
            "inputs": [
                {
                    "name": "index",
                    "type": "uint256",
                    "internalType": "uint256"
                }
            ],
            "outputs": [
                {
                    "name": "",
                    "type": "address",
                    "internalType": "address"
                }
            ],
            "stateMutability": "view"
        },
        {
            "type": "function",
            "name": "getAcceptedTokensCount",
            "inputs": [],
            "outputs": [
                {
                    "name": "",
                    "type": "uint256",
                    "internalType": "uint256"
                }
            ],
            "stateMutability": "view"
        },
        {
            "type": "function",
            "name": "getAuthorisedSignerIndex",
            "inputs": [
                {
                    "name": "signerAddress",
                    "type": "address",
                    "internalType": "address"
                }
            ],
            "outputs": [
                {
                    "name": "",
                    "type": "uint8",
                    "internalType": "uint8"
                }
            ],
            "stateMutability": "view"
        },
        {
            "type": "function",
            "name": "getBorrowedAmount",
            "inputs": [
                {
                    "name": "user",
                    "type": "address",
                    "internalType": "address"
                }
            ],
            "outputs": [
                {
                    "name": "",
                    "type": "uint256",
                    "internalType": "uint256"
                }
            ],
            "stateMutability": "view"
        },
        {
            "type": "function",
            "name": "getCollateralBalance",
            "inputs": [
                {
                    "name": "user",
                    "type": "address",
                    "internalType": "address"
                },
                {
                    "name": "token",
                    "type": "address",
                    "internalType": "address"
                }
            ],
            "outputs": [
                {
                    "name": "",
                    "type": "uint256",
                    "internalType": "uint256"
                }
            ],
            "stateMutability": "view"
        },
        {
            "type": "function",
            "name": "getCollateralValueInUSD",
            "inputs": [
                {
                    "name": "token",
                    "type": "address",
                    "internalType": "address"
                },
                {
                    "name": "amount",
                    "type": "uint256",
                    "internalType": "uint256"
                }
            ],
            "outputs": [
                {
                    "name": "",
                    "type": "uint256",
                    "internalType": "uint256"
                }
            ],
            "stateMutability": "view"
        },
        {
            "type": "function",
            "name": "getDataServiceId",
            "inputs": [],
            "outputs": [
                {
                    "name": "",
                    "type": "string",
                    "internalType": "string"
                }
            ],
            "stateMutability": "view"
        },
        {
            "type": "function",
            "name": "getUniqueSignersThreshold",
            "inputs": [],
            "outputs": [
                {
                    "name": "",
                    "type": "uint8",
                    "internalType": "uint8"
                }
            ],
            "stateMutability": "view"
        },
        {
            "type": "function",
            "name": "liquidate",
            "inputs": [
                {
                    "name": "user",
                    "type": "address",
                    "internalType": "address"
                },
                {
                    "name": "token",
                    "type": "address",
                    "internalType": "address"
                },
                {
                    "name": "debtToRepay",
                    "type": "uint256",
                    "internalType": "uint256"
                }
            ],
            "outputs": [],
            "stateMutability": "nonpayable"
        },
        {
            "type": "function",
            "name": "liquidationBonus",
            "inputs": [],
            "outputs": [
                {
                    "name": "",
                    "type": "uint256",
                    "internalType": "uint256"
                }
            ],
            "stateMutability": "view"
        },
        {
            "type": "function",
            "name": "liquidationThreshold",
            "inputs": [],
            "outputs": [
                {
                    "name": "",
                    "type": "uint256",
                    "internalType": "uint256"
                }
            ],
            "stateMutability": "view"
        },
        {
            "type": "function",
            "name": "owner",
            "inputs": [],
            "outputs": [
                {
                    "name": "",
                    "type": "address",
                    "internalType": "address"
                }
            ],
            "stateMutability": "view"
        },
        {
            "type": "function",
            "name": "removeCollateralToken",
            "inputs": [
                {
                    "name": "token",
                    "type": "address",
                    "internalType": "address"
                }
            ],
            "outputs": [],
            "stateMutability": "nonpayable"
        },
        {
            "type": "function",
            "name": "renounceOwnership",
            "inputs": [],
            "outputs": [],
            "stateMutability": "nonpayable"
        },
        {
            "type": "function",
            "name": "repay",
            "inputs": [
                {
                    "name": "amount",
                    "type": "uint256",
                    "internalType": "uint256"
                }
            ],
            "outputs": [],
            "stateMutability": "nonpayable"
        },
        {
            "type": "function",
            "name": "setCollateralRatio",
            "inputs": [
                {
                    "name": "newRatio",
                    "type": "uint256",
                    "internalType": "uint256"
                }
            ],
            "outputs": [],
            "stateMutability": "nonpayable"
        },
        {
            "type": "function",
            "name": "setLiquidationParameters",
            "inputs": [
                {
                    "name": "newLiquidationThreshold",
                    "type": "uint256",
                    "internalType": "uint256"
                },
                {
                    "name": "newLiquidationBonus",
                    "type": "uint256",
                    "internalType": "uint256"
                }
            ],
            "outputs": [],
            "stateMutability": "nonpayable"
        },
        {
            "type": "function",
            "name": "setTokenSymbol",
            "inputs": [
                {
                    "name": "token",
                    "type": "address",
                    "internalType": "address"
                },
                {
                    "name": "symbol",
                    "type": "bytes32",
                    "internalType": "bytes32"
                }
            ],
            "outputs": [],
            "stateMutability": "nonpayable"
        },
        {
            "type": "function",
            "name": "stablecoin",
            "inputs": [],
            "outputs": [
                {
                    "name": "",
                    "type": "address",
                    "internalType": "contract IMintableERC20"
                }
            ],
            "stateMutability": "view"
        },
        {
            "type": "function",
            "name": "tokenOracles",
            "inputs": [
                {
                    "name": "",
                    "type": "address",
                    "internalType": "address"
                }
            ],
            "outputs": [
                {
                    "name": "chainlinkAggregator",
                    "type": "address",
                    "internalType": "address"
                },
                {
                    "name": "maxPriceAge",
                    "type": "uint256",
                    "internalType": "uint256"
                },
                {
                    "name": "useRedstoneFallback",
                    "type": "bool",
                    "internalType": "bool"
                }
            ],
            "stateMutability": "view"
        },
        {
            "type": "function",
            "name": "tokenSymbols",
            "inputs": [
                {
                    "name": "",
                    "type": "address",
                    "internalType": "address"
                }
            ],
            "outputs": [
                {
                    "name": "",
                    "type": "bytes32",
                    "internalType": "bytes32"
                }
            ],
            "stateMutability": "view"
        },
        {
            "type": "function",
            "name": "transferOwnership",
            "inputs": [
                {
                    "name": "newOwner",
                    "type": "address",
                    "internalType": "address"
                }
            ],
            "outputs": [],
            "stateMutability": "nonpayable"
        },
        {
            "type": "function",
            "name": "validateTimestamp",
            "inputs": [
                {
                    "name": "receivedTimestampMilliseconds",
                    "type": "uint256",
                    "internalType": "uint256"
                }
            ],
            "outputs": [],
            "stateMutability": "view"
        },
        {
            "type": "function",
            "name": "vaults",
            "inputs": [
                {
                    "name": "",
                    "type": "address",
                    "internalType": "address"
                }
            ],
            "outputs": [
                {
                    "name": "borrowedAmount",
                    "type": "uint256",
                    "internalType": "uint256"
                },
                {
                    "name": "exists",
                    "type": "bool",
                    "internalType": "bool"
                }
            ],
            "stateMutability": "view"
        },
        {
            "type": "function",
            "name": "withdrawCollateral",
            "inputs": [
                {
                    "name": "token",
                    "type": "address",
                    "internalType": "address"
                },
                {
                    "name": "amount",
                    "type": "uint256",
                    "internalType": "uint256"
                }
            ],
            "outputs": [],
            "stateMutability": "nonpayable"
        },
        {
            "type": "event",
            "name": "CollateralDeposited",
            "inputs": [
                {
                    "name": "user",
                    "type": "address",
                    "indexed": true,
                    "internalType": "address"
                },
                {
                    "name": "token",
                    "type": "address",
                    "indexed": true,
                    "internalType": "address"
                },
                {
                    "name": "amount",
                    "type": "uint256",
                    "indexed": false,
                    "internalType": "uint256"
                }
            ],
            "anonymous": false
        },
        {
            "type": "event",
            "name": "CollateralTokenAdded",
            "inputs": [
                {
                    "name": "token",
                    "type": "address",
                    "indexed": true,
                    "internalType": "address"
                }
            ],
            "anonymous": false
        },
        {
            "type": "event",
            "name": "CollateralTokenRemoved",
            "inputs": [
                {
                    "name": "token",
                    "type": "address",
                    "indexed": true,
                    "internalType": "address"
                }
            ],
            "anonymous": false
        },
        {
            "type": "event",
            "name": "CollateralWithdrawn",
            "inputs": [
                {
                    "name": "user",
                    "type": "address",
                    "indexed": true,
                    "internalType": "address"
                },
                {
                    "name": "token",
                    "type": "address",
                    "indexed": true,
                    "internalType": "address"
                },
                {
                    "name": "amount",
                    "type": "uint256",
                    "indexed": false,
                    "internalType": "uint256"
                }
            ],
            "anonymous": false
        },
        {
            "type": "event",
            "name": "OracleConfigured",
            "inputs": [
                {
                    "name": "token",
                    "type": "address",
                    "indexed": true,
                    "internalType": "address"
                },
                {
                    "name": "aggregator",
                    "type": "address",
                    "indexed": false,
                    "internalType": "address"
                },
                {
                    "name": "maxAge",
                    "type": "uint256",
                    "indexed": false,
                    "internalType": "uint256"
                }
            ],
            "anonymous": false
        },
        {
            "type": "event",
            "name": "OwnershipTransferred",
            "inputs": [
                {
                    "name": "previousOwner",
                    "type": "address",
                    "indexed": true,
                    "internalType": "address"
                },
                {
                    "name": "newOwner",
                    "type": "address",
                    "indexed": true,
                    "internalType": "address"
                }
            ],
            "anonymous": false
        },
        {
            "type": "event",
            "name": "StablecoinBorrowed",
            "inputs": [
                {
                    "name": "user",
                    "type": "address",
                    "indexed": true,
                    "internalType": "address"
                },
                {
                    "name": "amount",
                    "type": "uint256",
                    "indexed": false,
                    "internalType": "uint256"
                }
            ],
            "anonymous": false
        },
        {
            "type": "event",
            "name": "StablecoinRepaid",
            "inputs": [
                {
                    "name": "user",
                    "type": "address",
                    "indexed": true,
                    "internalType": "address"
                },
                {
                    "name": "amount",
                    "type": "uint256",
                    "indexed": false,
                    "internalType": "uint256"
                }
            ],
            "anonymous": false
        },
        {
            "type": "event",
            "name": "VaultCreated",
            "inputs": [
                {
                    "name": "user",
                    "type": "address",
                    "indexed": true,
                    "internalType": "address"
                }
            ],
            "anonymous": false
        },
        {
            "type": "event",
            "name": "VaultDeleted",
            "inputs": [
                {
                    "name": "user",
                    "type": "address",
                    "indexed": true,
                    "internalType": "address"
                }
            ],
            "anonymous": false
        },
        {
            "type": "event",
            "name": "VaultLiquidated",
            "inputs": [
                {
                    "name": "user",
                    "type": "address",
                    "indexed": true,
                    "internalType": "address"
                },
                {
                    "name": "liquidator",
                    "type": "address",
                    "indexed": true,
                    "internalType": "address"
                },
                {
                    "name": "token",
                    "type": "address",
                    "indexed": true,
                    "internalType": "address"
                },
                {
                    "name": "debtRepaid",
                    "type": "uint256",
                    "indexed": false,
                    "internalType": "uint256"
                },
                {
                    "name": "collateralLiquidated",
                    "type": "uint256",
                    "indexed": false,
                    "internalType": "uint256"
                },
                {
                    "name": "bonus",
                    "type": "uint256",
                    "indexed": false,
                    "internalType": "uint256"
                }
            ],
            "anonymous": false
        },
        {
            "type": "error",
            "name": "CalldataMustHaveValidPayload",
            "inputs": []
        },
        {
            "type": "error",
            "name": "CalldataOverOrUnderFlow",
            "inputs": []
        },
        {
            "type": "error",
            "name": "CanNotPickMedianOfEmptyArray",
            "inputs": []
        },
        {
            "type": "error",
            "name": "DataPackageTimestampMustNotBeZero",
            "inputs": []
        },
        {
            "type": "error",
            "name": "DataPackageTimestampsMustBeEqual",
            "inputs": []
        },
        {
            "type": "error",
            "name": "DataTimestampCannotBeZero",
            "inputs": []
        },
        {
            "type": "error",
            "name": "EachSignerMustProvideTheSameValue",
            "inputs": []
        },
        {
            "type": "error",
            "name": "EmptyCalldataPointersArr",
            "inputs": []
        },
        {
            "type": "error",
            "name": "GetDataServiceIdNotImplemented",
            "inputs": []
        },
        {
            "type": "error",
            "name": "IncorrectUnsignedMetadataSize",
            "inputs": []
        },
        {
            "type": "error",
            "name": "InsufficientNumberOfUniqueSigners",
            "inputs": [
                {
                    "name": "receivedSignersCount",
                    "type": "uint256",
                    "internalType": "uint256"
                },
                {
                    "name": "requiredSignersCount",
                    "type": "uint256",
                    "internalType": "uint256"
                }
            ]
        },
        {
            "type": "error",
            "name": "InvalidCalldataPointer",
            "inputs": []
        },
        {
            "type": "error",
            "name": "InvalidSignature",
            "inputs": [
                {
                    "name": "signedHash",
                    "type": "bytes32",
                    "internalType": "bytes32"
                }
            ]
        },
        {
            "type": "error",
            "name": "RedstonePayloadMustHaveAtLeastOneDataPackage",
            "inputs": []
        },
        {
            "type": "error",
            "name": "SignerNotAuthorised",
            "inputs": [
                {
                    "name": "receivedSigner",
                    "type": "address",
                    "internalType": "address"
                }
            ]
        },
        {
            "type": "error",
            "name": "TimestampFromTooLongFuture",
            "inputs": [
                {
                    "name": "receivedTimestampSeconds",
                    "type": "uint256",
                    "internalType": "uint256"
                },
                {
                    "name": "blockTimestamp",
                    "type": "uint256",
                    "internalType": "uint256"
                }
            ]
        },
        {
            "type": "error",
            "name": "TimestampIsTooOld",
            "inputs": [
                {
                    "name": "receivedTimestampSeconds",
                    "type": "uint256",
                    "internalType": "uint256"
                },
                {
                    "name": "blockTimestamp",
                    "type": "uint256",
                    "internalType": "uint256"
                }
            ]
        },
        {
            "type": "error",
            "name": "TimestampsMustBeEqual",
            "inputs": []
        },
        {
            "type": "error",
            "name": "TooLargeValueByteSize",
            "inputs": [
                {
                    "name": "valueByteSize",
                    "type": "uint256",
                    "internalType": "uint256"
                }
            ]
        }
    ],
    "bytecode": {
        "object": "0x60a060405260966005556078600655600a60075534801561001e575f5ffd5b5060405161603f38038061603f833981810160405281019061004091906101bc565b61005c61005161009660201b60201c565b61009d60201b60201c565b8073ffffffffffffffffffffffffffffffffffffffff1660808173ffffffffffffffffffffffffffffffffffffffff1681525050506101e7565b5f33905090565b5f5f5f9054906101000a900473ffffffffffffffffffffffffffffffffffffffff169050815f5f6101000a81548173ffffffffffffffffffffffffffffffffffffffff021916908373ffffffffffffffffffffffffffffffffffffffff1602179055508173ffffffffffffffffffffffffffffffffffffffff168173ffffffffffffffffffffffffffffffffffffffff167f8be0079c531659141344cd1fd0a4f28419497f9722a3daafe3b4186f6b6457e060405160405180910390a35050565b5f5ffd5b5f73ffffffffffffffffffffffffffffffffffffffff82169050919050565b5f61018b82610162565b9050919050565b61019b81610181565b81146101a5575f5ffd5b50565b5f815190506101b681610192565b92915050565b5f602082840312156101d1576101d061015e565b5b5f6101de848285016101a8565b91505092915050565b608051615e1d6102225f395f8181610d8701528181610dce015281816114340152818161147b0152818161267201526127a00152615e1d5ff3fe608060405234801561000f575f5ffd5b506004361061025c575f3560e01c8063a5d5db0c11610144578063d5c66d1b116100c1578063f16123f111610085578063f16123f114610721578063f2fde38b1461073f578063f50b2efe1461075b578063f89594ea14610777578063f90c4924146107a7578063fb0b2b36146107c55761025c565b8063d5c66d1b1461067d578063dadb7e79146106ad578063e6ab1ecc146106c9578063e6e623d5146106e7578063e9cbd822146107035761025c565b8063b9f2c7b511610108578063b9f2c7b5146105b1578063bd492432146105e1578063c274583a14610613578063cde5e01714610631578063cf4fa51c146106615761025c565b8063a5d5db0c146104e6578063a622ee7c14610502578063b24ebfcc14610533578063b4eae1cb14610563578063b7d5820b146105815761025c565b80635b969c3f116101dd5780637b7c1f4c116101a15780637b7c1f4c1461041057806387309f8b1461042e5780638da5cb5b1461044c57806394f9059f1461046a5780639ce625f714610486578063a46adce9146104b65761025c565b80635b969c3f146103b85780635d12928b146103c25780636060663e146103cc5780636a7e9f33146103e8578063715018a6146104065761025c565b8063350c35e911610224578063350c35e914610314578063371fd8e6146103305780633ce142f51461034c5780634031234c1461037c57806355a547d51461039a5761025c565b8063082d6f1d146102605780630b77dda81461029057806314a00561146102ac57806326c01303146102dc57806329918899146102f8575b5f5ffd5b61027a60048036038101906102759190614396565b6107f5565b60405161028791906143d9565b60405180910390f35b6102aa60048036038101906102a59190614451565b6108b7565b005b6102c660048036038101906102c191906144b5565b6109f5565b6040516102d391906144ef565b60405180910390f35b6102f660048036038101906102f19190614508565b610a80565b005b610312600480360381019061030d9190614396565b610f79565b005b61032e60048036038101906103299190614558565b61105a565b005b61034a600480360381019061034591906144b5565b611313565b005b61036660048036038101906103619190614396565b61156b565b60405161037391906145b1565b60405180910390f35b6103846115fd565b60405161039191906143d9565b60405180910390f35b6103a2611603565b6040516103af91906143d9565b60405180910390f35b6103c0611760565b005b6103ca611995565b005b6103e660048036038101906103e191906144b5565b611abe565b005b6103f0611b14565b6040516103fd91906143d9565b60405180910390f35b61040e611b19565b005b610418611b2c565b60405161042591906143d9565b60405180910390f35b610436611b32565b60405161044391906143d9565b60405180910390f35b610454611b37565b60405161046191906144ef565b60405180910390f35b610484600480360381019061047f9190614396565b611b5e565b005b6104a0600480360381019061049b9190614396565b611c3e565b6040516104ad91906143d9565b60405180910390f35b6104d060048036038101906104cb91906144b5565b611d6f565b6040516104dd91906144ef565b60405180910390f35b61050060048036038101906104fb9190614558565b611daa565b005b61051c60048036038101906105179190614396565b611ff0565b60405161052a9291906145d9565b60405180910390f35b61054d60048036038101906105489190614750565b61201d565b60405161055a91906143d9565b60405180910390f35b61056b61202e565b60405161057891906143d9565b60405180910390f35b61059b60048036038101906105969190614797565b612034565b6040516105a891906143d9565b60405180910390f35b6105cb60048036038101906105c69190614396565b6120b8565b6040516105d891906143d9565b60405180910390f35b6105fb60048036038101906105f69190614396565b612101565b60405161060a939291906147d5565b60405180910390f35b61061b612152565b604051610628919061486a565b60405180910390f35b61064b60048036038101906106469190614396565b61218f565b60405161065891906143d9565b60405180910390f35b61067b6004803603810190610676919061488a565b61225c565b005b61069760048036038101906106929190614558565b612342565b6040516106a491906143d9565b60405180910390f35b6106c760048036038101906106c291906144b5565b61250d565b005b6106d161274b565b6040516106de91906143d9565b60405180910390f35b61070160048036038101906106fc91906148fb565b612750565b005b61070b61279e565b6040516107189190614994565b60405180910390f35b6107296127c2565b60405161073691906143d9565b60405180910390f35b61075960048036038101906107549190614396565b6127ce565b005b610775600480360381019061077091906144b5565b612850565b005b610791600480360381019061078c9190614396565b61285c565b60405161079e91906149ad565b60405180910390f35b6107af612879565b6040516107bc91906145b1565b60405180910390f35b6107df60048036038101906107da9190614396565b612881565b6040516107ec91906149d5565b60405180910390f35b5f5f5f5f90505b6108046127c2565b8110156108ad575f610815826109f5565b905060015f8673ffffffffffffffffffffffffffffffffffffffff1673ffffffffffffffffffffffffffffffffffffffff1681526020019081526020015f205f015f8273ffffffffffffffffffffffffffffffffffffffff1673ffffffffffffffffffffffffffffffffffffffff1681526020019081526020015f20548361089d9190614a1b565b92505080806001019150506107fc565b5080915050919050565b6108bf612896565b60405180606001604052808473ffffffffffffffffffffffffffffffffffffffff16815260200183815260200182151581525060035f8673ffffffffffffffffffffffffffffffffffffffff1673ffffffffffffffffffffffffffffffffffffffff1681526020019081526020015f205f820151815f015f6101000a81548173ffffffffffffffffffffffffffffffffffffffff021916908373ffffffffffffffffffffffffffffffffffffffff160217905550602082015181600101556040820151816002015f6101000a81548160ff0219169083151502179055509050508373ffffffffffffffffffffffffffffffffffffffff167f971b2d9bfe72eda1f542aa9e1f9bc58810f7705949484661f98e7d11c7742b9584846040516109e7929190614a4e565b60405180910390a250505050565b5f6008805490508210610a3d576040517f08c379a0000000000000000000000000000000000000000000000000000000008152600401610a3490614abf565b60405180910390fd5b60088281548110610a5157610a50614add565b5b905f5260205f20015f9054906101000a900473ffffffffffffffffffffffffffffffffffffffff169050919050565b3373ffffffffffffffffffffffffffffffffffffffff168373ffffffffffffffffffffffffffffffffffffffff1603610aee576040517f08c379a0000000000000000000000000000000000000000000000000000000008152600401610ae590614b54565b60405180910390fd5b5f60015f8573ffffffffffffffffffffffffffffffffffffffff1673ffffffffffffffffffffffffffffffffffffffff1681526020019081526020015f209050806002015f9054906101000a900460ff16610b7e576040517f08c379a0000000000000000000000000000000000000000000000000000000008152600401610b7590614bbc565b60405180910390fd5b5f8211610bc0576040517f08c379a0000000000000000000000000000000000000000000000000000000008152600401610bb790614c24565b60405180910390fd5b8060010154821115610c07576040517f08c379a0000000000000000000000000000000000000000000000000000000008152600401610bfe90614c8c565b60405180910390fd5b5f610c1185611c3e565b90506006548110610c57576040517f08c379a0000000000000000000000000000000000000000000000000000000008152600401610c4e90614cf4565b60405180910390fd5b5f825f015f8673ffffffffffffffffffffffffffffffffffffffff1673ffffffffffffffffffffffffffffffffffffffff1681526020019081526020015f205490505f8111610cdb576040517f08c379a0000000000000000000000000000000000000000000000000000000008152600401610cd290614d5c565b60405180910390fd5b5f610ce68683612342565b90505f60646007546064610cfa9190614a1b565b87610d059190614d7a565b610d0f9190614de8565b90505f6064600283610d219190614d7a565b610d2b9190614de8565b90505f8183610d3a9190614a1b565b905084811115610d7f576040517f08c379a0000000000000000000000000000000000000000000000000000000008152600401610d7690614e62565b60405180910390fd5b610dcc33308a7f000000000000000000000000000000000000000000000000000000000000000073ffffffffffffffffffffffffffffffffffffffff16612914909392919063ffffffff16565b7f000000000000000000000000000000000000000000000000000000000000000073ffffffffffffffffffffffffffffffffffffffff166342966c68896040518263ffffffff1660e01b8152600401610e2591906143d9565b5f604051808303815f87803b158015610e3c575f5ffd5b505af1158015610e4e573d5f5f3e3d5ffd5b5050505087876001015f828254610e659190614e80565b9250508190555080875f015f8b73ffffffffffffffffffffffffffffffffffffffff1673ffffffffffffffffffffffffffffffffffffffff1681526020019081526020015f205f828254610eb99190614e80565b92505081905550610eeb33828b73ffffffffffffffffffffffffffffffffffffffff1661299d9092919063ffffffff16565b8873ffffffffffffffffffffffffffffffffffffffff163373ffffffffffffffffffffffffffffffffffffffff168b73ffffffffffffffffffffffffffffffffffffffff167fe8ad051578869bee90b1ad40b3a83c7d050294b1a235484c11fa3ec39938f1698b85600754604051610f6593929190614eb3565b60405180910390a450505050505050505050565b610f81612896565b60025f8273ffffffffffffffffffffffffffffffffffffffff1673ffffffffffffffffffffffffffffffffffffffff1681526020019081526020015f205f9054906101000a900460ff161561100b576040517f08c379a000000000000000000000000000000000000000000000000000000000815260040161100290614f32565b60405180910390fd5b61101481612a23565b8073ffffffffffffffffffffffffffffffffffffffff167fd61bc477a25fa080e2c32ed9e4417ba4861d11b873216136586ddedadcff2f0260405160405180910390a250565b5f811161109c576040517f08c379a000000000000000000000000000000000000000000000000000000000815260040161109390614f9a565b60405180910390fd5b5f60015f3373ffffffffffffffffffffffffffffffffffffffff1673ffffffffffffffffffffffffffffffffffffffff1681526020019081526020015f209050806002015f9054906101000a900460ff1661112c576040517f08c379a000000000000000000000000000000000000000000000000000000000815260040161112390614bbc565b60405180910390fd5b81815f015f8573ffffffffffffffffffffffffffffffffffffffff1673ffffffffffffffffffffffffffffffffffffffff1681526020019081526020015f205410156111ad576040517f08c379a00000000000000000000000000000000000000000000000000000000081526004016111a490614e62565b60405180910390fd5b5f6111b7336107f5565b90505f83826111c69190614e80565b905060055483600101546111da9190614d7a565b6064826111e79190614d7a565b1015611228576040517f08c379a000000000000000000000000000000000000000000000000000000000815260040161121f90615002565b60405180910390fd5b83835f015f8773ffffffffffffffffffffffffffffffffffffffff1673ffffffffffffffffffffffffffffffffffffffff1681526020019081526020015f205f8282546112759190614e80565b925050819055506112a733858773ffffffffffffffffffffffffffffffffffffffff1661299d9092919063ffffffff16565b8473ffffffffffffffffffffffffffffffffffffffff163373ffffffffffffffffffffffffffffffffffffffff167f45892a46e6cef329bb642da6d69846d324db43d19008edc141ed82382eda1bee8660405161130491906143d9565b60405180910390a35050505050565b5f8111611355576040517f08c379a000000000000000000000000000000000000000000000000000000000815260040161134c90614f9a565b60405180910390fd5b5f60015f3373ffffffffffffffffffffffffffffffffffffffff1673ffffffffffffffffffffffffffffffffffffffff1681526020019081526020015f209050806002015f9054906101000a900460ff166113e5576040517f08c379a00000000000000000000000000000000000000000000000000000000081526004016113dc90614bbc565b60405180910390fd5b818160010154101561142c576040517f08c379a00000000000000000000000000000000000000000000000000000000081526004016114239061506a565b60405180910390fd5b6114793330847f000000000000000000000000000000000000000000000000000000000000000073ffffffffffffffffffffffffffffffffffffffff16612914909392919063ffffffff16565b7f000000000000000000000000000000000000000000000000000000000000000073ffffffffffffffffffffffffffffffffffffffff166342966c68836040518263ffffffff1660e01b81526004016114d291906143d9565b5f604051808303815f87803b1580156114e9575f5ffd5b505af11580156114fb573d5f5f3e3d5ffd5b5050505081816001015f8282546115129190614e80565b925050819055503373ffffffffffffffffffffffffffffffffffffffff167f34405999b38b75b6bbef439ea264bb836bb5dbb16b0f608c09640f81beb6e1eb8360405161155f91906143d9565b60405180910390a25050565b5f730c39486f770b26f5527bbbf942726537986cd7eb73ffffffffffffffffffffffffffffffffffffffff168273ffffffffffffffffffffffffffffffffffffffff16036115bb575f90506115f8565b816040517fec459bc00000000000000000000000000000000000000000000000000000000081526004016115ef91906144ef565b60405180910390fd5b919050565b60065481565b5f5f61160d612b2a565b90505f61161982612c37565b8161ffff16915080935081925050505f8103611661576040517f8552ff3c00000000000000000000000000000000000000000000000000000000815260040160405180910390fd5b5f5f90505b8181101561175a575f61167884612ca4565b90505f5f6068866116899190614a1b565b90505f815f36905061169b9190614e80565b9050803592505f8365ffffffffffff16036116e2576040517f336dc9d000000000000000000000000000000000000000000000000000000000815260040160405180910390fd5b5f88036116f9578265ffffffffffff16975061173b565b878365ffffffffffff161461173a576040517fd9d1f46500000000000000000000000000000000000000000000000000000000815260040160405180910390fd5b5b83876117479190614a1b565b9650505050508080600101915050611666565b50505090565b5f60015f3373ffffffffffffffffffffffffffffffffffffffff1673ffffffffffffffffffffffffffffffffffffffff1681526020019081526020015f209050806002015f9054906101000a900460ff166117f0576040517f08c379a00000000000000000000000000000000000000000000000000000000081526004016117e790614bbc565b60405180910390fd5b5f816001015414611836576040517f08c379a000000000000000000000000000000000000000000000000000000000815260040161182d906150d2565b60405180910390fd5b5f5f5f90505b6118446127c2565b8110156118b1575f611855826109f5565b9050835f015f8273ffffffffffffffffffffffffffffffffffffffff1673ffffffffffffffffffffffffffffffffffffffff1681526020019081526020015f2054836118a19190614a1b565b925050808060010191505061183c565b505f81146118f4576040517f08c379a00000000000000000000000000000000000000000000000000000000081526004016118eb9061513a565b60405180910390fd5b60015f3373ffffffffffffffffffffffffffffffffffffffff1673ffffffffffffffffffffffffffffffffffffffff1681526020019081526020015f205f600182015f9055600282015f6101000a81549060ff021916905550503373ffffffffffffffffffffffffffffffffffffffff167ff36087b3c80b4ac13a0baa7cb17773105b0ca21e8b8871f4787e3aacf687ef5060405160405180910390a25050565b60015f3373ffffffffffffffffffffffffffffffffffffffff1673ffffffffffffffffffffffffffffffffffffffff1681526020019081526020015f206002015f9054906101000a900460ff1615611a22576040517f08c379a0000000000000000000000000000000000000000000000000000000008152600401611a19906151a2565b60405180910390fd5b6001805f3373ffffffffffffffffffffffffffffffffffffffff1673ffffffffffffffffffffffffffffffffffffffff1681526020019081526020015f206002015f6101000a81548160ff0219169083151502179055503373ffffffffffffffffffffffffffffffffffffffff167f2e49a5810fda2439a23771848b4acec786b0a64d4de3d124ac57fc8739c3887560405160405180910390a2565b611ac6612896565b6064811015611b0a576040517f08c379a0000000000000000000000000000000000000000000000000000000008152600401611b019061520a565b60405180910390fd5b8060058190555050565b606481565b611b21612896565b611b2a5f612ce1565b565b60075481565b601481565b5f5f5f9054906101000a900473ffffffffffffffffffffffffffffffffffffffff16905090565b611b66612896565b60025f8273ffffffffffffffffffffffffffffffffffffffff1673ffffffffffffffffffffffffffffffffffffffff1681526020019081526020015f205f9054906101000a900460ff16611bef576040517f08c379a0000000000000000000000000000000000000000000000000000000008152600401611be690615272565b60405180910390fd5b611bf881612da2565b8073ffffffffffffffffffffffffffffffffffffffff167f066186f1dd144b0baa72e90264076813d8f2dfce7c39704ea68d159cee4305b760405160405180910390a250565b5f5f60015f8473ffffffffffffffffffffffffffffffffffffffff1673ffffffffffffffffffffffffffffffffffffffff1681526020019081526020015f2090505f816001015403611cb3577fffffffffffffffffffffffffffffffffffffffffffffffffffffffffffffffff915050611d6a565b5f5f90505f5f90505b611cc46127c2565b811015611d48575f611cd5826109f5565b90505f845f015f8373ffffffffffffffffffffffffffffffffffffffff1673ffffffffffffffffffffffffffffffffffffffff1681526020019081526020015f205490505f811115611d3957611d2b8282612342565b84611d369190614a1b565b93505b50508080600101915050611cbc565b508160010154606482611d5b9190614d7a565b611d659190614de8565b925050505b919050565b60088181548110611d7e575f80fd5b905f5260205f20015f915054906101000a900473ffffffffffffffffffffffffffffffffffffffff1681565b60025f8373ffffffffffffffffffffffffffffffffffffffff1673ffffffffffffffffffffffffffffffffffffffff1681526020019081526020015f205f9054906101000a900460ff16611e33576040517f08c379a0000000000000000000000000000000000000000000000000000000008152600401611e2a90615272565b60405180910390fd5b5f8111611e75576040517f08c379a0000000000000000000000000000000000000000000000000000000008152600401611e6c90614f9a565b60405180910390fd5b5f60015f3373ffffffffffffffffffffffffffffffffffffffff1673ffffffffffffffffffffffffffffffffffffffff1681526020019081526020015f209050806002015f9054906101000a900460ff16611f05576040517f08c379a0000000000000000000000000000000000000000000000000000000008152600401611efc90614bbc565b60405180910390fd5b611f323330848673ffffffffffffffffffffffffffffffffffffffff16612914909392919063ffffffff16565b81815f015f8573ffffffffffffffffffffffffffffffffffffffff1673ffffffffffffffffffffffffffffffffffffffff1681526020019081526020015f205f828254611f7f9190614a1b565b925050819055508273ffffffffffffffffffffffffffffffffffffffff163373ffffffffffffffffffffffffffffffffffffffff167ff1c0dd7e9b98bbff859029005ef89b127af049cd18df1a8d79f0b7e019911e5684604051611fe391906143d9565b60405180910390a3505050565b6001602052805f5260405f205f91509050806001015490806002015f9054906101000a900460ff16905082565b5f61202782612fc6565b9050919050565b60055481565b5f60015f8473ffffffffffffffffffffffffffffffffffffffff1673ffffffffffffffffffffffffffffffffffffffff1681526020019081526020015f205f015f8373ffffffffffffffffffffffffffffffffffffffff1673ffffffffffffffffffffffffffffffffffffffff1681526020019081526020015f2054905092915050565b5f60015f8373ffffffffffffffffffffffffffffffffffffffff1673ffffffffffffffffffffffffffffffffffffffff1681526020019081526020015f20600101549050919050565b6003602052805f5260405f205f91509050805f015f9054906101000a900473ffffffffffffffffffffffffffffffffffffffff1690806001015490806002015f9054906101000a900460ff16905083565b60606040518060400160405280601281526020017f72656473746f6e652d6d61696e2d64656d6f0000000000000000000000000000815250905090565b5f5f61219a836107f5565b90505f6005546064836121ad9190614d7a565b6121b79190614de8565b905060015f8573ffffffffffffffffffffffffffffffffffffffff1673ffffffffffffffffffffffffffffffffffffffff1681526020019081526020015f20600101548111612206575f612253565b60015f8573ffffffffffffffffffffffffffffffffffffffff1673ffffffffffffffffffffffffffffffffffffffff1681526020019081526020015f2060010154816122529190614e80565b5b92505050919050565b612264612896565b60055482106122a8576040517f08c379a000000000000000000000000000000000000000000000000000000000815260040161229f90615300565b60405180910390fd5b60648210156122ec576040517f08c379a00000000000000000000000000000000000000000000000000000000081526004016122e390615368565b60405180910390fd5b6014811115612330576040517f08c379a0000000000000000000000000000000000000000000000000000000008152600401612327906153d0565b60405180910390fd5b81600681905550806007819055505050565b5f60025f8473ffffffffffffffffffffffffffffffffffffffff1673ffffffffffffffffffffffffffffffffffffffff1681526020019081526020015f205f9054906101000a900460ff166123cc576040517f08c379a00000000000000000000000000000000000000000000000000000000081526004016123c390615438565b60405180910390fd5b5f60035f8573ffffffffffffffffffffffffffffffffffffffff1673ffffffffffffffffffffffffffffffffffffffff1681526020019081526020015f206040518060600160405290815f82015f9054906101000a900473ffffffffffffffffffffffffffffffffffffffff1673ffffffffffffffffffffffffffffffffffffffff1673ffffffffffffffffffffffffffffffffffffffff16815260200160018201548152602001600282015f9054906101000a900460ff16151515158152505090505f61249b858584612fd7565b90505f8111156124af578092505050612507565b8160400151156124cc576124c385856132cc565b92505050612507565b6040517f08c379a00000000000000000000000000000000000000000000000000000000081526004016124fe906154a0565b60405180910390fd5b92915050565b5f811161254f576040517f08c379a000000000000000000000000000000000000000000000000000000000815260040161254690614f9a565b60405180910390fd5b5f60015f3373ffffffffffffffffffffffffffffffffffffffff1673ffffffffffffffffffffffffffffffffffffffff1681526020019081526020015f209050806002015f9054906101000a900460ff166125df576040517f08c379a00000000000000000000000000000000000000000000000000000000081526004016125d690614bbc565b60405180910390fd5b5f6125e9336107f5565b90506005548383600101546125fe9190614a1b565b6126089190614d7a565b6064826126159190614d7a565b1015612656576040517f08c379a000000000000000000000000000000000000000000000000000000000815260040161264d90615002565b60405180910390fd5b82826001015f8282546126699190614a1b565b925050819055507f000000000000000000000000000000000000000000000000000000000000000073ffffffffffffffffffffffffffffffffffffffff166340c10f1933856040518363ffffffff1660e01b81526004016126cb929190614a4e565b5f604051808303815f87803b1580156126e2575f5ffd5b505af11580156126f4573d5f5f3e3d5ffd5b505050503373ffffffffffffffffffffffffffffffffffffffff167f55ca543acfe189813a500eaff658acafb5d2345c0db5314154e00ac8c9d3b91f8460405161273e91906143d9565b60405180910390a2505050565b600281565b612758612896565b8060045f8473ffffffffffffffffffffffffffffffffffffffff1673ffffffffffffffffffffffffffffffffffffffff1681526020019081526020015f20819055505050565b7f000000000000000000000000000000000000000000000000000000000000000081565b5f600880549050905090565b6127d6612896565b5f73ffffffffffffffffffffffffffffffffffffffff168173ffffffffffffffffffffffffffffffffffffffff1603612844576040517f08c379a000000000000000000000000000000000000000000000000000000000815260040161283b9061552e565b60405180910390fd5b61284d81612ce1565b50565b6128598161343e565b50565b6002602052805f5260405f205f915054906101000a900460ff1681565b5f6001905090565b6004602052805f5260405f205f915090505481565b61289e613507565b73ffffffffffffffffffffffffffffffffffffffff166128bc611b37565b73ffffffffffffffffffffffffffffffffffffffff1614612912576040517f08c379a000000000000000000000000000000000000000000000000000000000815260040161290990615596565b60405180910390fd5b565b612997846323b872dd60e01b858585604051602401612935939291906155b4565b604051602081830303815290604052907bffffffffffffffffffffffffffffffffffffffffffffffffffffffff19166020820180517bffffffffffffffffffffffffffffffffffffffffffffffffffffffff838183161783525050505061350e565b50505050565b612a1e8363a9059cbb60e01b84846040516024016129bc929190614a4e565b604051602081830303815290604052907bffffffffffffffffffffffffffffffffffffffffffffffffffffffff19166020820180517bffffffffffffffffffffffffffffffffffffffffffffffffffffffff838183161783525050505061350e565b505050565b60025f8273ffffffffffffffffffffffffffffffffffffffff1673ffffffffffffffffffffffffffffffffffffffff1681526020019081526020015f205f9054906101000a900460ff16612b2757600160025f8373ffffffffffffffffffffffffffffffffffffffff1673ffffffffffffffffffffffffffffffffffffffff1681526020019081526020015f205f6101000a81548160ff021916908315150217905550600881908060018154018082558091505060019003905f5260205f20015f9091909190916101000a81548173ffffffffffffffffffffffffffffffffffffffff021916908373ffffffffffffffffffffffffffffffffffffffff1602179055505b50565b5f5f60203603356602ed57011e000081166602ed57011e00001491505080612b7e576040517fe7764c9e00000000000000000000000000000000000000000000000000000000815260040160405180910390fd5b5f5f36905060291115612bbd576040517f5796f78a00000000000000000000000000000000000000000000000000000000815260040160405180910390fd5b602936033590505f600960038362ffffff16612bd99190614a1b565b612be39190614a1b565b90505f369050600282612bf69190614a1b565b1115612c2e576040517fc30a7bd700000000000000000000000000000000000000000000000000000000815260040160405180910390fd5b80935050505090565b5f5f5f602084612c479190614a1b565b90505f369050811115612c86576040517f5796f78a00000000000000000000000000000000000000000000000000000000815260040160405180910390fd5b80360335925082600285612c9a9190614a1b565b9250925050915091565b5f5f5f612cb0846135d4565b91509150604e816020612cc39190614a1b565b83612cce9190614d7a565b612cd89190614a1b565b92505050919050565b5f5f5f9054906101000a900473ffffffffffffffffffffffffffffffffffffffff169050815f5f6101000a81548173ffffffffffffffffffffffffffffffffffffffff021916908373ffffffffffffffffffffffffffffffffffffffff1602179055508173ffffffffffffffffffffffffffffffffffffffff168173ffffffffffffffffffffffffffffffffffffffff167f8be0079c531659141344cd1fd0a4f28419497f9722a3daafe3b4186f6b6457e060405160405180910390a35050565b60025f8273ffffffffffffffffffffffffffffffffffffffff1673ffffffffffffffffffffffffffffffffffffffff1681526020019081526020015f205f9054906101000a900460ff1615612fc3575f60025f8373ffffffffffffffffffffffffffffffffffffffff1673ffffffffffffffffffffffffffffffffffffffff1681526020019081526020015f205f6101000a81548160ff0219169083151502179055505f5f90505b600880549050811015612fc1578173ffffffffffffffffffffffffffffffffffffffff1660088281548110612e8257612e81614add565b5b905f5260205f20015f9054906101000a900473ffffffffffffffffffffffffffffffffffffffff1673ffffffffffffffffffffffffffffffffffffffff1603612fb45760086001600880549050612ed99190614e80565b81548110612eea57612ee9614add565b5b905f5260205f20015f9054906101000a900473ffffffffffffffffffffffffffffffffffffffff1660088281548110612f2657612f25614add565b5b905f5260205f20015f6101000a81548173ffffffffffffffffffffffffffffffffffffffff021916908373ffffffffffffffffffffffffffffffffffffffff1602179055506008805480612f7d57612f7c6155e9565b5b600190038181905f5260205f20015f6101000a81549073ffffffffffffffffffffffffffffffffffffffff02191690559055612fc1565b8080600101915050612e4a565b505b50565b5f612fd082613632565b9050919050565b5f5f73ffffffffffffffffffffffffffffffffffffffff16825f015173ffffffffffffffffffffffffffffffffffffffff1603613016575f90506132c5565b5f825f015190505f5f5f5f5f8573ffffffffffffffffffffffffffffffffffffffff1663feaf968c6040518163ffffffff1660e01b815260040160a060405180830381865afa15801561306b573d5f5f3e3d5ffd5b505050506040513d601f19601f8201168201806040525081019061308f919061569c565b945094509450945094505f84136130db576040517f08c379a00000000000000000000000000000000000000000000000000000000081526004016130d29061575d565b60405180910390fd5b876020015182426130ec9190614e80565b111561312d576040517f08c379a0000000000000000000000000000000000000000000000000000000008152600401613124906157c5565b60405180910390fd5b8469ffffffffffffffffffff168169ffffffffffffffffffff161015613188576040517f08c379a000000000000000000000000000000000000000000000000000000000815260040161317f9061582d565b60405180910390fd5b5f8673ffffffffffffffffffffffffffffffffffffffff1663313ce5676040518163ffffffff1660e01b8152600401602060405180830381865afa1580156131d2573d5f5f3e3d5ffd5b505050506040513d601f19601f820116820180604052508101906131f69190615875565b90505f8b73ffffffffffffffffffffffffffffffffffffffff1663313ce5676040518163ffffffff1660e01b8152600401602060405180830381865afa158015613242573d5f5f3e3d5ffd5b505050506040513d601f19601f820116820180604052508101906132669190615875565b90505f868c6132759190614d7a565b9050670de0b6b3a764000082600a61328d91906159cf565b84600a61329a91906159cf565b836132a59190614de8565b6132af9190614de8565b6132b99190614d7a565b99505050505050505050505b9392505050565b5f5f60045f8573ffffffffffffffffffffffffffffffffffffffff1673ffffffffffffffffffffffffffffffffffffffff1681526020019081526020015f205490505f5f1b8103613352576040517f08c379a000000000000000000000000000000000000000000000000000000000815260040161334990615a63565b60405180910390fd5b5f61335c82613781565b90505f81116133a0576040517f08c379a000000000000000000000000000000000000000000000000000000000815260040161339790615acb565b60405180910390fd5b5f8573ffffffffffffffffffffffffffffffffffffffff1663313ce5676040518163ffffffff1660e01b8152600401602060405180830381865afa1580156133ea573d5f5f3e3d5ffd5b505050506040513d601f19601f8201168201806040525081019061340e9190615875565b905080600a61341d91906159cf565b82866134299190614d7a565b6134339190614de8565b935050505092915050565b5f6103e88261344d9190614de8565b9050804210156134af57603c42826134659190614e80565b11156134aa5780426040517fb6b0916d0000000000000000000000000000000000000000000000000000000081526004016134a1929190615ae9565b60405180910390fd5b613503565b60b481426134bd9190614e80565b11156135025780426040517f0321d0b50000000000000000000000000000000000000000000000000000000081526004016134f9929190615ae9565b60405180910390fd5b5b5050565b5f33905090565b5f61356f826040518060400160405280602081526020017f5361666545524332303a206c6f772d6c6576656c2063616c6c206661696c65648152508573ffffffffffffffffffffffffffffffffffffffff1661381a9092919063ffffffff16565b90505f8151148061359057508080602001905181019061358f9190615b24565b5b6135cf576040517f08c379a00000000000000000000000000000000000000000000000000000000081526004016135c690615bbf565b60405180910390fd5b505050565b5f5f5f5f5f60206041876135e89190614a1b565b6135f29190614a1b565b5f3690506136009190614e80565b9050803592506003816136139190614e80565b9050803591508262ffffff1694508163ffffffff169350505050915091565b5f60028251036136905760028260018151811061365257613651614add565b5b6020026020010151835f8151811061366d5761366c614add565b5b602002602001015161367f9190614a1b565b6136899190614de8565b905061377c565b5f8251036136ca576040517f9e198af900000000000000000000000000000000000000000000000000000000815260040160405180910390fd5b6136d382613831565b5f600283516136e29190614de8565b90505f600284516136f39190615bdd565b0361375d575f83828151811061370c5761370b614add565b5b6020026020010151846001846137229190614e80565b8151811061373357613732614add565b5b60200260200101516137459190614a1b565b90506002816137549190614de8565b9250505061377c565b8281815181106137705761376f614add565b5b60200260200101519150505b919050565b5f5f600167ffffffffffffffff81111561379e5761379d614614565b5b6040519080825280602002602001820160405280156137cc5781602001602082028036833780820191505090505b50905082815f815181106137e3576137e2614add565b5b6020026020010181815250506137f881613884565b5f8151811061380a57613809614add565b5b6020026020010151915050919050565b606061382884845f856138a8565b90509392505050565b805160208201602082028101815b8181101561387d57825b81811015613871578151815180821015613864578084528183525b5050602081019050613849565b5060208101905061383f565b5050505050565b60605f5f61389184613971565b9150915061389e81612850565b8192505050919050565b6060824710156138ed576040517f08c379a00000000000000000000000000000000000000000000000000000000081526004016138e490615c7d565b60405180910390fd5b5f5f8673ffffffffffffffffffffffffffffffffffffffff1685876040516139159190615cdf565b5f6040518083038185875af1925050503d805f811461394f576040519150601f19603f3d011682016040523d82523d5f602084013e613954565b606091505b509150915061396587838387613bee565b92505050949350505050565b60605f5f835167ffffffffffffffff8111156139905761398f614614565b5b6040519080825280602002602001820160405280156139be5781602001602082028036833780820191505090505b5090505f845167ffffffffffffffff8111156139dd576139dc614614565b5b604051908082528060200260200182016040528015613a0b5781602001602082028036833780820191505090505b5090505f855167ffffffffffffffff811115613a2a57613a29614614565b5b604051908082528060200260200182016040528015613a5d57816020015b6060815260200190600190039081613a485790505b5090505f613a69612879565b60ff1690505f5f90505b8751811015613af0578167ffffffffffffffff811115613a9657613a95614614565b5b604051908082528060200260200182016040528015613ac45781602001602082028036833780820191505090505b50838281518110613ad857613ad7614add565b5b60200260200101819052508080600101915050613a73565b505f613afa612b2a565b90505f613b0682612c37565b8161ffff16915080935081925050505f60405190505f5f90505b82811015613bd5575f613b368c8a8a8a89613c62565b80925081965050505f8103613b77576040517fdfb25a7900000000000000000000000000000000000000000000000000000000815260040160405180910390fd5b898114613bc0575f8a03613b8d57809950613bbf565b6040517f4cbc474200000000000000000000000000000000000000000000000000000000815260040160405180910390fd5b5b60208301604052818060010192505050613b20565b50613be08588613f25565b985050505050505050915091565b60608315613c4f575f835103613c4757613c078561406b565b613c46576040517f08c379a0000000000000000000000000000000000000000000000000000000008152600401613c3d90615d3f565b60405180910390fd5b5b829050613c5a565b613c59838361408d565b5b949350505050565b5f5f5f5f5f613c70866135d4565b915091505f5f60605f5f600d602087613c899190614a1b565b88613c949190614d7a565b613c9e9190614a1b565b91505f60688c613cae9190614a1b565b5f369050613cbc9190614e80565b90505f8360418e613ccd9190614a1b565b613cd79190614a1b565b5f369050613ce59190614e80565b9050613cf18482613d1e565b9450836020860120955081359250613d39565b5f6040519050818152602081019050818101604052919050565b5f613d2883613d04565b838382376020810391505092915050565b8265ffffffffffff169a50613d5a8660418f613d559190614a1b565b6140dc565b9650613d658761156b565b60ff16995050505050505050604e86613d7e9190614a1b565b95505f5f5f5f90505b84811015613f12576020848a613d9d9190614a1b565b613da79190614a1b565b9850613db3898561428c565b80935081945050505f5f90505b8d51811015613f04578d8181518110613ddc57613ddb614add565b5b60200260200101518403613ef7575f8c8281518110613dfe57613dfd614add565b5b60200260200101519050613e128189614304565b158015613e425750613e22612879565b60ff168e8381518110613e3857613e37614add565b5b6020026020010151105b15613ef157838c8381518110613e5b57613e5a614add565b5b60200260200101518f8481518110613e7657613e75614add565b5b602002602001015181518110613e8f57613e8e614add565b5b6020026020010181815250508d8281518110613eae57613ead614add565b5b602002602001018051809190613ec390615d5d565b81525050613ed1818961431b565b8d8381518110613ee457613ee3614add565b5b6020026020010181815250505b50613f04565b8080600101915050613dc0565b508080600101915050613d87565b5050508594505050509550959350505050565b60605f835167ffffffffffffffff811115613f4357613f42614614565b5b604051908082528060200260200182016040528015613f715781602001602082028036833780820191505090505b5090505f613f7d612879565b60ff1690505f5f90505b855181101561405f5781858281518110613fa457613fa3614add565b5b6020026020010151101561400b57848181518110613fc557613fc4614add565b5b6020026020010151826040517f2b13aef5000000000000000000000000000000000000000000000000000000008152600401614002929190615ae9565b60405180910390fd5b5f61402f87838151811061402257614021614add565b5b602002602001015161201d565b90508084838151811061404557614044614add565b5b602002602001018181525050818060010192505050613f87565b50819250505092915050565b5f5f8273ffffffffffffffffffffffffffffffffffffffff163b119050919050565b5f8251111561409f5781518083602001fd5b806040517f08c379a00000000000000000000000000000000000000000000000000000000081526004016140d3919061486a565b60405180910390fd5b5f5f5f5f843603803593506020810190508035925060208101905080355f1a915050601b60ff168160ff161415801561411c5750601c60ff168160ff1614155b1561415e57856040517f666b7cba00000000000000000000000000000000000000000000000000000000815260040161415591906149d5565b60405180910390fd5b7f7fffffffffffffffffffffffffffffff5d576e7357a4501ddfe92f46681b20a0825f1c11156141c557856040517f666b7cba0000000000000000000000000000000000000000000000000000000081526004016141bc91906149d5565b60405180910390fd5b6001868285856040515f81526020016040526040516141e79493929190615da4565b6020604051602081039080840390855afa158015614207573d5f5f3e3d5ffd5b5050506020604051035193505f73ffffffffffffffffffffffffffffffffffffffff168473ffffffffffffffffffffffffffffffffffffffff160361428357856040517f666b7cba00000000000000000000000000000000000000000000000000000000815260040161427a91906149d5565b60405180910390fd5b50505092915050565b5f5f5f845f36905061429e9190614e80565b90508035925060208101359150602184106142f057836040517fc000fc420000000000000000000000000000000000000000000000000000000081526004016142e791906143d9565b60405180910390fd5b6008846020030282901c9150509250929050565b5f5f826001901b841690505f811191505092915050565b5f816001901b8317905092915050565b5f604051905090565b5f5ffd5b5f5ffd5b5f73ffffffffffffffffffffffffffffffffffffffff82169050919050565b5f6143658261433c565b9050919050565b6143758161435b565b811461437f575f5ffd5b50565b5f813590506143908161436c565b92915050565b5f602082840312156143ab576143aa614334565b5b5f6143b884828501614382565b91505092915050565b5f819050919050565b6143d3816143c1565b82525050565b5f6020820190506143ec5f8301846143ca565b92915050565b6143fb816143c1565b8114614405575f5ffd5b50565b5f81359050614416816143f2565b92915050565b5f8115159050919050565b6144308161441c565b811461443a575f5ffd5b50565b5f8135905061444b81614427565b92915050565b5f5f5f5f6080858703121561446957614468614334565b5b5f61447687828801614382565b945050602061448787828801614382565b935050604061449887828801614408565b92505060606144a98782880161443d565b91505092959194509250565b5f602082840312156144ca576144c9614334565b5b5f6144d784828501614408565b91505092915050565b6144e98161435b565b82525050565b5f6020820190506145025f8301846144e0565b92915050565b5f5f5f6060848603121561451f5761451e614334565b5b5f61452c86828701614382565b935050602061453d86828701614382565b925050604061454e86828701614408565b9150509250925092565b5f5f6040838503121561456e5761456d614334565b5b5f61457b85828601614382565b925050602061458c85828601614408565b9150509250929050565b5f60ff82169050919050565b6145ab81614596565b82525050565b5f6020820190506145c45f8301846145a2565b92915050565b6145d38161441c565b82525050565b5f6040820190506145ec5f8301856143ca565b6145f960208301846145ca565b9392505050565b5f5ffd5b5f601f19601f8301169050919050565b7f4e487b71000000000000000000000000000000000000000000000000000000005f52604160045260245ffd5b61464a82614604565b810181811067ffffffffffffffff8211171561466957614668614614565b5b80604052505050565b5f61467b61432b565b90506146878282614641565b919050565b5f67ffffffffffffffff8211156146a6576146a5614614565b5b602082029050602081019050919050565b5f5ffd5b5f6146cd6146c88461468c565b614672565b905080838252602082019050602084028301858111156146f0576146ef6146b7565b5b835b8181101561471957806147058882614408565b8452602084019350506020810190506146f2565b5050509392505050565b5f82601f83011261473757614736614600565b5b81356147478482602086016146bb565b91505092915050565b5f6020828403121561476557614764614334565b5b5f82013567ffffffffffffffff81111561478257614781614338565b5b61478e84828501614723565b91505092915050565b5f5f604083850312156147ad576147ac614334565b5b5f6147ba85828601614382565b92505060206147cb85828601614382565b9150509250929050565b5f6060820190506147e85f8301866144e0565b6147f560208301856143ca565b61480260408301846145ca565b949350505050565b5f81519050919050565b5f82825260208201905092915050565b8281835e5f83830152505050565b5f61483c8261480a565b6148468185614814565b9350614856818560208601614824565b61485f81614604565b840191505092915050565b5f6020820190508181035f8301526148828184614832565b905092915050565b5f5f604083850312156148a05761489f614334565b5b5f6148ad85828601614408565b92505060206148be85828601614408565b9150509250929050565b5f819050919050565b6148da816148c8565b81146148e4575f5ffd5b50565b5f813590506148f5816148d1565b92915050565b5f5f6040838503121561491157614910614334565b5b5f61491e85828601614382565b925050602061492f858286016148e7565b9150509250929050565b5f819050919050565b5f61495c6149576149528461433c565b614939565b61433c565b9050919050565b5f61496d82614942565b9050919050565b5f61497e82614963565b9050919050565b61498e81614974565b82525050565b5f6020820190506149a75f830184614985565b92915050565b5f6020820190506149c05f8301846145ca565b92915050565b6149cf816148c8565b82525050565b5f6020820190506149e85f8301846149c6565b92915050565b7f4e487b71000000000000000000000000000000000000000000000000000000005f52601160045260245ffd5b5f614a25826143c1565b9150614a30836143c1565b9250828201905080821115614a4857614a476149ee565b5b92915050565b5f604082019050614a615f8301856144e0565b614a6e60208301846143ca565b9392505050565b7f496e646578206f7574206f6620626f756e6473000000000000000000000000005f82015250565b5f614aa9601383614814565b9150614ab482614a75565b602082019050919050565b5f6020820190508181035f830152614ad681614a9d565b9050919050565b7f4e487b71000000000000000000000000000000000000000000000000000000005f52603260045260245ffd5b7f43616e6e6f74206c6971756964617465206f776e20706f736974696f6e0000005f82015250565b5f614b3e601d83614814565b9150614b4982614b0a565b602082019050919050565b5f6020820190508181035f830152614b6b81614b32565b9050919050565b7f5661756c7420646f65736e2774206578697374000000000000000000000000005f82015250565b5f614ba6601383614814565b9150614bb182614b72565b602082019050919050565b5f6020820190508181035f830152614bd381614b9a565b9050919050565b7f496e76616c6964206465627420616d6f756e74000000000000000000000000005f82015250565b5f614c0e601383614814565b9150614c1982614bda565b602082019050919050565b5f6020820190508181035f830152614c3b81614c02565b9050919050565b7f45786365656473207573657220646562740000000000000000000000000000005f82015250565b5f614c76601183614814565b9150614c8182614c42565b602082019050919050565b5f6020820190508181035f830152614ca381614c6a565b9050919050565b7f506f736974696f6e206e6f74206c6971756964617461626c65000000000000005f82015250565b5f614cde601983614814565b9150614ce982614caa565b602082019050919050565b5f6020820190508181035f830152614d0b81614cd2565b9050919050565b7f4e6f20636f6c6c61746572616c20617661696c61626c650000000000000000005f82015250565b5f614d46601783614814565b9150614d5182614d12565b602082019050919050565b5f6020820190508181035f830152614d7381614d3a565b9050919050565b5f614d84826143c1565b9150614d8f836143c1565b9250828202614d9d816143c1565b91508282048414831517614db457614db36149ee565b5b5092915050565b7f4e487b71000000000000000000000000000000000000000000000000000000005f52601260045260245ffd5b5f614df2826143c1565b9150614dfd836143c1565b925082614e0d57614e0c614dbb565b5b828204905092915050565b7f496e73756666696369656e7420636f6c6c61746572616c0000000000000000005f82015250565b5f614e4c601783614814565b9150614e5782614e18565b602082019050919050565b5f6020820190508181035f830152614e7981614e40565b9050919050565b5f614e8a826143c1565b9150614e95836143c1565b9250828203905081811115614ead57614eac6149ee565b5b92915050565b5f606082019050614ec65f8301866143ca565b614ed360208301856143ca565b614ee060408301846143ca565b949350505050565b7f546f6b656e20616c7265616479206163636570746564000000000000000000005f82015250565b5f614f1c601683614814565b9150614f2782614ee8565b602082019050919050565b5f6020820190508181035f830152614f4981614f10565b9050919050565b7f496e76616c696420616d6f756e740000000000000000000000000000000000005f82015250565b5f614f84600e83614814565b9150614f8f82614f50565b602082019050919050565b5f6020820190508181035f830152614fb181614f78565b9050919050565b7f496e73756666696369656e7420636f6c6c61746572616c20726174696f0000005f82015250565b5f614fec601d83614814565b9150614ff782614fb8565b602082019050919050565b5f6020820190508181035f83015261501981614fe0565b9050919050565b7f526570617920616d6f756e7420657863656564732064656274000000000000005f82015250565b5f615054601983614814565b915061505f82615020565b602082019050919050565b5f6020820190508181035f83015261508181615048565b9050919050565b7f4f75747374616e64696e672064656274000000000000000000000000000000005f82015250565b5f6150bc601083614814565b91506150c782615088565b602082019050919050565b5f6020820190508181035f8301526150e9816150b0565b9050919050565b7f436f6c6c61746572616c206e6f7420636c6561726564000000000000000000005f82015250565b5f615124601683614814565b915061512f826150f0565b602082019050919050565b5f6020820190508181035f83015261515181615118565b9050919050565b7f5661756c742065786973747300000000000000000000000000000000000000005f82015250565b5f61518c600c83614814565b915061519782615158565b602082019050919050565b5f6020820190508181035f8301526151b981615180565b9050919050565b7f526174696f20746f6f206c6f77000000000000000000000000000000000000005f82015250565b5f6151f4600d83614814565b91506151ff826151c0565b602082019050919050565b5f6020820190508181035f830152615221816151e8565b9050919050565b7f546f6b656e206e6f7420616363657074656400000000000000000000000000005f82015250565b5f61525c601283614814565b915061526782615228565b602082019050919050565b5f6020820190508181035f83015261528981615250565b9050919050565b7f5468726573686f6c64206d7573742062652062656c6f7720636f6c6c617465725f8201527f616c20726174696f000000000000000000000000000000000000000000000000602082015250565b5f6152ea602883614814565b91506152f582615290565b604082019050919050565b5f6020820190508181035f830152615317816152de565b9050919050565b7f5468726573686f6c6420746f6f206c6f770000000000000000000000000000005f82015250565b5f615352601183614814565b915061535d8261531e565b602082019050919050565b5f6020820190508181035f83015261537f81615346565b9050919050565b7f426f6e757320746f6f20686967680000000000000000000000000000000000005f82015250565b5f6153ba600e83614814565b91506153c582615386565b602082019050919050565b5f6020820190508181035f8301526153e7816153ae565b9050919050565b7f556e616363657074656420636f6c6c61746572616c00000000000000000000005f82015250565b5f615422601583614814565b915061542d826153ee565b602082019050919050565b5f6020820190508181035f83015261544f81615416565b9050919050565b7f507269636520756e617661696c61626c650000000000000000000000000000005f82015250565b5f61548a601183614814565b915061549582615456565b602082019050919050565b5f6020820190508181035f8301526154b78161547e565b9050919050565b7f4f776e61626c653a206e6577206f776e657220697320746865207a65726f20615f8201527f6464726573730000000000000000000000000000000000000000000000000000602082015250565b5f615518602683614814565b9150615523826154be565b604082019050919050565b5f6020820190508181035f8301526155458161550c565b9050919050565b7f4f776e61626c653a2063616c6c6572206973206e6f7420746865206f776e65725f82015250565b5f615580602083614814565b915061558b8261554c565b602082019050919050565b5f6020820190508181035f8301526155ad81615574565b9050919050565b5f6060820190506155c75f8301866144e0565b6155d460208301856144e0565b6155e160408301846143ca565b949350505050565b7f4e487b71000000000000000000000000000000000000000000000000000000005f52603160045260245ffd5b5f69ffffffffffffffffffff82169050919050565b61563481615616565b811461563e575f5ffd5b50565b5f8151905061564f8161562b565b92915050565b5f819050919050565b61566781615655565b8114615671575f5ffd5b50565b5f815190506156828161565e565b92915050565b5f81519050615696816143f2565b92915050565b5f5f5f5f5f60a086880312156156b5576156b4614334565b5b5f6156c288828901615641565b95505060206156d388828901615674565b94505060406156e488828901615688565b93505060606156f588828901615688565b925050608061570688828901615641565b9150509295509295909350565b7f496e76616c6964207072696365000000000000000000000000000000000000005f82015250565b5f615747600d83614814565b915061575282615713565b602082019050919050565b5f6020820190508181035f8301526157748161573b565b9050919050565b7f5374616c652070726963650000000000000000000000000000000000000000005f82015250565b5f6157af600b83614814565b91506157ba8261577b565b602082019050919050565b5f6020820190508181035f8301526157dc816157a3565b9050919050565b7f5374616c6520726f756e640000000000000000000000000000000000000000005f82015250565b5f615817600b83614814565b9150615822826157e3565b602082019050919050565b5f6020820190508181035f8301526158448161580b565b9050919050565b61585481614596565b811461585e575f5ffd5b50565b5f8151905061586f8161584b565b92915050565b5f6020828403121561588a57615889614334565b5b5f61589784828501615861565b91505092915050565b5f8160011c9050919050565b5f5f8291508390505b60018511156158f5578086048111156158d1576158d06149ee565b5b60018516156158e05780820291505b80810290506158ee856158a0565b94506158b5565b94509492505050565b5f8261590d57600190506159c8565b8161591a575f90506159c8565b8160018114615930576002811461593a57615969565b60019150506159c8565b60ff84111561594c5761594b6149ee565b5b8360020a915084821115615963576159626149ee565b5b506159c8565b5060208310610133831016604e8410600b841016171561599e5782820a905083811115615999576159986149ee565b5b6159c8565b6159ab84848460016158ac565b925090508184048111156159c2576159c16149ee565b5b81810290505b9392505050565b5f6159d9826143c1565b91506159e483614596565b9250615a117fffffffffffffffffffffffffffffffffffffffffffffffffffffffffffffffff84846158fe565b905092915050565b7f53796d626f6c206e6f7420636f6e6669677572656400000000000000000000005f82015250565b5f615a4d601583614814565b9150615a5882615a19565b602082019050919050565b5f6020820190508181035f830152615a7a81615a41565b9050919050565b7f496e76616c69642052656473746f6e65207072696365000000000000000000005f82015250565b5f615ab5601683614814565b9150615ac082615a81565b602082019050919050565b5f6020820190508181035f830152615ae281615aa9565b9050919050565b5f604082019050615afc5f8301856143ca565b615b0960208301846143ca565b9392505050565b5f81519050615b1e81614427565b92915050565b5f60208284031215615b3957615b38614334565b5b5f615b4684828501615b10565b91505092915050565b7f5361666545524332303a204552433230206f7065726174696f6e20646964206e5f8201527f6f74207375636365656400000000000000000000000000000000000000000000602082015250565b5f615ba9602a83614814565b9150615bb482615b4f565b604082019050919050565b5f6020820190508181035f830152615bd681615b9d565b9050919050565b5f615be7826143c1565b9150615bf2836143c1565b925082615c0257615c01614dbb565b5b828206905092915050565b7f416464726573733a20696e73756666696369656e742062616c616e636520666f5f8201527f722063616c6c0000000000000000000000000000000000000000000000000000602082015250565b5f615c67602683614814565b9150615c7282615c0d565b604082019050919050565b5f6020820190508181035f830152615c9481615c5b565b9050919050565b5f81519050919050565b5f81905092915050565b5f615cb982615c9b565b615cc38185615ca5565b9350615cd3818560208601614824565b80840191505092915050565b5f615cea8284615caf565b915081905092915050565b7f416464726573733a2063616c6c20746f206e6f6e2d636f6e74726163740000005f82015250565b5f615d29601d83614814565b9150615d3482615cf5565b602082019050919050565b5f6020820190508181035f830152615d5681615d1d565b9050919050565b5f615d67826143c1565b91507fffffffffffffffffffffffffffffffffffffffffffffffffffffffffffffffff8203615d9957615d986149ee565b5b600182019050919050565b5f608082019050615db75f8301876149c6565b615dc460208301866145a2565b615dd160408301856149c6565b615dde60608301846149c6565b9594505050505056fea2646970667358221220c45c4e75ce8310bc7b97e872a9828bc9f035a592553f9a435c959896ece6e34e64736f6c634300081c0033",
        "linkReferences": {}
    },
    "methodIdentifiers": {
        "MAX_LIQUIDATION_BONUS()": "87309f8b",
        "PRICE_IMPACT_PERCENTAGE()": "e6ab1ecc",
        "RATIO_DIVISOR()": "6a7e9f33",
        "acceptedCollateralTokens(address)": "f89594ea",
        "acceptedTokensList(uint256)": "a46adce9",
        "addCollateralToken(address)": "29918899",
        "aggregateValues(uint256[])": "b24ebfcc",
        "borrowStablecoin(uint256)": "dadb7e79",
        "calculateHealthFactor(address)": "9ce625f7",
        "calculateMaxBorrowable(address)": "cde5e017",
        "calculateTotalCollateralValue(address)": "082d6f1d",
        "collateralRatio()": "b4eae1cb",
        "configureOracle(address,address,uint256,bool)": "0b77dda8",
        "createVault()": "5d12928b",
        "deleteVault()": "5b969c3f",
        "depositCollateral(address,uint256)": "a5d5db0c",
        "extractTimestampsAndAssertAllAreEqual()": "55a547d5",
        "getAcceptedTokenAtIndex(uint256)": "14a00561",
        "getAcceptedTokensCount()": "f16123f1",
        "getAuthorisedSignerIndex(address)": "3ce142f5",
        "getBorrowedAmount(address)": "b9f2c7b5",
        "getCollateralBalance(address,address)": "b7d5820b",
        "getCollateralValueInUSD(address,uint256)": "d5c66d1b",
        "getDataServiceId()": "c274583a",
        "getUniqueSignersThreshold()": "f90c4924",
        "liquidate(address,address,uint256)": "26c01303",
        "liquidationBonus()": "7b7c1f4c",
        "liquidationThreshold()": "4031234c",
        "owner()": "8da5cb5b",
        "removeCollateralToken(address)": "94f9059f",
        "renounceOwnership()": "715018a6",
        "repay(uint256)": "371fd8e6",
        "setCollateralRatio(uint256)": "6060663e",
        "setLiquidationParameters(uint256,uint256)": "cf4fa51c",
        "setTokenSymbol(address,bytes32)": "e6e623d5",
        "stablecoin()": "e9cbd822",
        "tokenOracles(address)": "bd492432",
        "tokenSymbols(address)": "fb0b2b36",
        "transferOwnership(address)": "f2fde38b",
        "validateTimestamp(uint256)": "f50b2efe",
        "vaults(address)": "a622ee7c",
        "withdrawCollateral(address,uint256)": "350c35e9"
    },
    "id": 38
}